{
  "contractName": "SupplyChain",
  "abi": [
    {
      "inputs": [],
      "stateMutability": "nonpayable",
      "type": "constructor"
    },
    {
      "anonymous": false,
      "inputs": [
        {
          "indexed": true,
          "internalType": "uint256",
          "name": "partID",
          "type": "uint256"
        },
        {
          "indexed": false,
          "internalType": "bool",
          "name": "isValid",
          "type": "bool"
        }
      ],
      "name": "PartVerified",
      "type": "event"
    },
    {
      "anonymous": false,
      "inputs": [
        {
          "indexed": true,
          "internalType": "uint256",
          "name": "partID",
          "type": "uint256"
        },
        {
          "indexed": true,
          "internalType": "address",
          "name": "recipient",
          "type": "address"
        },
        {
          "indexed": false,
          "internalType": "uint256",
          "name": "amount",
          "type": "uint256"
        }
      ],
      "name": "PaymentSent",
      "type": "event"
    },
    {
      "anonymous": false,
      "inputs": [
        {
          "indexed": true,
          "internalType": "uint256",
          "name": "partID",
          "type": "uint256"
        },
        {
          "indexed": false,
          "internalType": "enum SupplyChain.STAGE",
          "name": "stage",
          "type": "uint8"
        },
        {
          "indexed": false,
          "internalType": "uint256",
          "name": "timestamp",
          "type": "uint256"
        }
      ],
      "name": "StageUpdate",
      "type": "event"
    },
    {
      "inputs": [
        {
          "internalType": "uint256",
          "name": "",
          "type": "uint256"
        }
      ],
      "name": "CUS",
      "outputs": [
        {
          "internalType": "address",
          "name": "addr",
          "type": "address"
        },
        {
          "internalType": "uint256",
          "name": "id",
          "type": "uint256"
        },
        {
          "internalType": "string",
          "name": "name",
          "type": "string"
        },
        {
          "internalType": "string",
          "name": "location",
          "type": "string"
        }
      ],
      "stateMutability": "view",
      "type": "function",
      "constant": true
    },
    {
      "inputs": [
        {
          "internalType": "uint256",
          "name": "",
          "type": "uint256"
        }
      ],
      "name": "DIS",
      "outputs": [
        {
          "internalType": "address",
          "name": "addr",
          "type": "address"
        },
        {
          "internalType": "uint256",
          "name": "id",
          "type": "uint256"
        },
        {
          "internalType": "string",
          "name": "name",
          "type": "string"
        },
        {
          "internalType": "string",
          "name": "location",
          "type": "string"
        }
      ],
      "stateMutability": "view",
      "type": "function",
      "constant": true
    },
    {
      "inputs": [
        {
          "internalType": "uint256",
          "name": "",
          "type": "uint256"
        }
      ],
      "name": "MAN",
      "outputs": [
        {
          "internalType": "address",
          "name": "addr",
          "type": "address"
        },
        {
          "internalType": "uint256",
          "name": "id",
          "type": "uint256"
        },
        {
          "internalType": "string",
          "name": "name",
          "type": "string"
        },
        {
          "internalType": "string",
          "name": "location",
          "type": "string"
        }
      ],
      "stateMutability": "view",
      "type": "function",
      "constant": true
    },
    {
      "inputs": [],
      "name": "Owner",
      "outputs": [
        {
          "internalType": "address",
          "name": "",
          "type": "address"
        }
      ],
      "stateMutability": "view",
      "type": "function",
      "constant": true
    },
    {
      "inputs": [
        {
          "internalType": "uint256",
          "name": "",
          "type": "uint256"
        }
      ],
      "name": "Parts",
      "outputs": [
        {
          "internalType": "uint256",
          "name": "id",
          "type": "uint256"
        },
        {
          "internalType": "string",
          "name": "serialNumber",
          "type": "string"
        },
        {
          "internalType": "string",
          "name": "name",
          "type": "string"
        },
        {
          "internalType": "string",
          "name": "description",
          "type": "string"
        },
        {
          "internalType": "uint256",
          "name": "SUPid",
          "type": "uint256"
        },
        {
          "internalType": "uint256",
          "name": "MANid",
          "type": "uint256"
        },
        {
          "internalType": "uint256",
          "name": "DISid",
          "type": "uint256"
        },
        {
          "internalType": "uint256",
          "name": "RETid",
          "type": "uint256"
        },
        {
          "internalType": "uint256",
          "name": "CUSid",
          "type": "uint256"
        },
        {
          "internalType": "enum SupplyChain.STAGE",
          "name": "stage",
          "type": "uint8"
        },
        {
          "internalType": "uint256",
          "name": "productionDate",
          "type": "uint256"
        },
        {
          "internalType": "bytes32",
          "name": "partHash",
          "type": "bytes32"
        }
      ],
      "stateMutability": "view",
      "type": "function",
      "constant": true
    },
    {
      "inputs": [
        {
          "internalType": "uint256",
          "name": "",
          "type": "uint256"
        }
      ],
      "name": "RET",
      "outputs": [
        {
          "internalType": "address",
          "name": "addr",
          "type": "address"
        },
        {
          "internalType": "uint256",
          "name": "id",
          "type": "uint256"
        },
        {
          "internalType": "string",
          "name": "name",
          "type": "string"
        },
        {
          "internalType": "string",
          "name": "location",
          "type": "string"
        }
      ],
      "stateMutability": "view",
      "type": "function",
      "constant": true
    },
    {
      "inputs": [
        {
          "internalType": "uint256",
          "name": "",
          "type": "uint256"
        }
      ],
      "name": "SUP",
      "outputs": [
        {
          "internalType": "address",
          "name": "addr",
          "type": "address"
        },
        {
          "internalType": "uint256",
          "name": "id",
          "type": "uint256"
        },
        {
          "internalType": "string",
          "name": "name",
          "type": "string"
        },
        {
          "internalType": "string",
          "name": "location",
          "type": "string"
        }
      ],
      "stateMutability": "view",
      "type": "function",
      "constant": true
    },
    {
      "inputs": [],
      "name": "cusCtr",
      "outputs": [
        {
          "internalType": "uint256",
          "name": "",
          "type": "uint256"
        }
      ],
      "stateMutability": "view",
      "type": "function",
      "constant": true
    },
    {
      "inputs": [],
      "name": "disCtr",
      "outputs": [
        {
          "internalType": "uint256",
          "name": "",
          "type": "uint256"
        }
      ],
      "stateMutability": "view",
      "type": "function",
      "constant": true
    },
    {
      "inputs": [],
      "name": "manCtr",
      "outputs": [
        {
          "internalType": "uint256",
          "name": "",
          "type": "uint256"
        }
      ],
      "stateMutability": "view",
      "type": "function",
      "constant": true
    },
    {
      "inputs": [],
      "name": "partCtr",
      "outputs": [
        {
          "internalType": "uint256",
          "name": "",
          "type": "uint256"
        }
      ],
      "stateMutability": "view",
      "type": "function",
      "constant": true
    },
    {
      "inputs": [],
      "name": "retCtr",
      "outputs": [
        {
          "internalType": "uint256",
          "name": "",
          "type": "uint256"
        }
      ],
      "stateMutability": "view",
      "type": "function",
      "constant": true
    },
    {
      "inputs": [],
      "name": "supCtr",
      "outputs": [
        {
          "internalType": "uint256",
          "name": "",
          "type": "uint256"
        }
      ],
      "stateMutability": "view",
      "type": "function",
      "constant": true
    },
    {
      "inputs": [
        {
          "internalType": "address",
          "name": "_address",
          "type": "address"
        },
        {
          "internalType": "string",
          "name": "_name",
          "type": "string"
        },
        {
          "internalType": "string",
          "name": "_location",
          "type": "string"
        }
      ],
      "name": "addSupplier",
      "outputs": [],
      "stateMutability": "nonpayable",
      "type": "function"
    },
    {
      "inputs": [
        {
          "internalType": "address",
          "name": "_address",
          "type": "address"
        },
        {
          "internalType": "string",
          "name": "_name",
          "type": "string"
        },
        {
          "internalType": "string",
          "name": "_location",
          "type": "string"
        }
      ],
      "name": "addManufacturer",
      "outputs": [],
      "stateMutability": "nonpayable",
      "type": "function"
    },
    {
      "inputs": [
        {
          "internalType": "address",
          "name": "_address",
          "type": "address"
        },
        {
          "internalType": "string",
          "name": "_name",
          "type": "string"
        },
        {
          "internalType": "string",
          "name": "_location",
          "type": "string"
        }
      ],
      "name": "addDistributor",
      "outputs": [],
      "stateMutability": "nonpayable",
      "type": "function"
    },
    {
      "inputs": [
        {
          "internalType": "address",
          "name": "_address",
          "type": "address"
        },
        {
          "internalType": "string",
          "name": "_name",
          "type": "string"
        },
        {
          "internalType": "string",
          "name": "_location",
          "type": "string"
        }
      ],
      "name": "addRetailer",
      "outputs": [],
      "stateMutability": "nonpayable",
      "type": "function"
    },
    {
      "inputs": [
        {
          "internalType": "address",
          "name": "_address",
          "type": "address"
        },
        {
          "internalType": "string",
          "name": "_name",
          "type": "string"
        },
        {
          "internalType": "string",
          "name": "_location",
          "type": "string"
        }
      ],
      "name": "addCustomer",
      "outputs": [],
      "stateMutability": "nonpayable",
      "type": "function"
    },
    {
      "inputs": [
        {
          "internalType": "string",
          "name": "_serialNumber",
          "type": "string"
        },
        {
          "internalType": "string",
          "name": "_name",
          "type": "string"
        },
        {
          "internalType": "string",
          "name": "_description",
          "type": "string"
        }
      ],
      "name": "addPart",
      "outputs": [],
      "stateMutability": "nonpayable",
      "type": "function"
    },
    {
      "inputs": [
        {
          "internalType": "uint256",
          "name": "_partID",
          "type": "uint256"
        }
      ],
      "name": "showStage",
      "outputs": [
        {
          "internalType": "string",
          "name": "",
          "type": "string"
        }
      ],
      "stateMutability": "view",
      "type": "function",
      "constant": true
    },
    {
      "inputs": [
        {
          "internalType": "uint256",
          "name": "_partID",
          "type": "uint256"
        },
        {
          "internalType": "string",
          "name": "_serialNumber",
          "type": "string"
        },
        {
          "internalType": "string",
          "name": "_name",
          "type": "string"
        }
      ],
      "name": "verifyPart",
      "outputs": [
        {
          "internalType": "bool",
          "name": "",
          "type": "bool"
        }
      ],
      "stateMutability": "view",
      "type": "function",
      "constant": true
    },
    {
      "inputs": [
        {
          "internalType": "uint256",
          "name": "_partID",
          "type": "uint256"
        },
        {
          "internalType": "uint256",
          "name": "_amount",
          "type": "uint256"
        }
      ],
      "name": "paySupplier",
      "outputs": [],
      "stateMutability": "payable",
      "type": "function",
      "payable": true
    },
    {
      "inputs": [
        {
          "internalType": "uint256",
          "name": "_partID",
          "type": "uint256"
        }
      ],
      "name": "componentSourcing",
      "outputs": [],
      "stateMutability": "nonpayable",
      "type": "function"
    },
    {
      "inputs": [
        {
          "internalType": "uint256",
          "name": "_partID",
          "type": "uint256"
        }
      ],
      "name": "Assembly",
      "outputs": [],
      "stateMutability": "nonpayable",
      "type": "function"
    },
    {
      "inputs": [
        {
          "internalType": "uint256",
          "name": "_partID",
          "type": "uint256"
        }
      ],
      "name": "qualityCheck",
      "outputs": [],
      "stateMutability": "nonpayable",
      "type": "function"
    },
    {
      "inputs": [
        {
          "internalType": "uint256",
          "name": "_partID",
          "type": "uint256"
        }
      ],
      "name": "delivery",
      "outputs": [],
      "stateMutability": "nonpayable",
      "type": "function"
    },
    {
      "inputs": [
        {
          "internalType": "uint256",
          "name": "_partID",
          "type": "uint256"
        }
      ],
      "name": "retail",
      "outputs": [],
      "stateMutability": "nonpayable",
      "type": "function"
    }
  ],
  "bytecode": "0x608060405260006001556000600255600060035560006004556000600555600060065534801561002e57600080fd5b50336000806101000a81548173ffffffffffffffffffffffffffffffffffffffff021916908373ffffffffffffffffffffffffffffffffffffffff160217905550613ff48061007e6000396000f3fe60806040526004361061019c5760003560e01c8063775bf5bd116100ec578063b201cca41161008a578063b5fabfda11610064578063b5fabfda146105e0578063bcb8b23114610609578063cc40306914610632578063e101a2e0146106725761019c565b8063b201cca414610544578063b3dfe8501461056d578063b4a99a4e146105b55761019c565b806383250b3f116100c657806383250b3f1461049c578063857ddb04146104c75780638b73e021146104f0578063ad8e4393146105195761019c565b8063775bf5bd146104085780637e43d94d14610448578063825cdc21146104735761019c565b8063438e9c4d116101595780635f833ee3116101335780635f833ee31461035b57806365bcfb751461037757806369e92498146103a25780636a992c9f146103df5761019c565b8063438e9c4d146102b057806359bf286f146102db5780635d4f3b811461031b5761019c565b80631144fd72146101a15780632a4af440146101ca5780632b0187ac146101f35780632bdb2e6b146102335780632ee917ce1461025e5780633be5941414610287575b600080fd5b3480156101ad57600080fd5b506101c860048036038101906101c39190613526565b6106af565b005b3480156101d657600080fd5b506101f160048036038101906101ec9190613410565b6108e7565b005b3480156101ff57600080fd5b5061021a60048036038101906102159190613526565b610ade565b60405161022a94939291906139e6565b60405180910390f35b34801561023f57600080fd5b50610248610c3e565b6040516102559190613bff565b60405180910390f35b34801561026a57600080fd5b506102856004803603810190610280919061348f565b610c44565b005b34801561029357600080fd5b506102ae60048036038101906102a99190613526565b610f78565b005b3480156102bc57600080fd5b506102c5611195565b6040516102d29190613bff565b60405180910390f35b3480156102e757600080fd5b5061030260048036038101906102fd9190613526565b61119b565b60405161031294939291906139e6565b60405180910390f35b34801561032757600080fd5b50610342600480360381019061033d9190613526565b6112fb565b60405161035294939291906139e6565b60405180910390f35b610375600480360381019061037091906135ce565b61145b565b005b34801561038357600080fd5b5061038c6116c4565b6040516103999190613bff565b60405180910390f35b3480156103ae57600080fd5b506103c960048036038101906103c4919061354f565b6116ca565b6040516103d69190613a39565b60405180910390f35b3480156103eb57600080fd5b5061040660048036038101906104019190613410565b611777565b005b34801561041457600080fd5b5061042f600480360381019061042a9190613526565b61196e565b60405161043f94939291906139e6565b60405180910390f35b34801561045457600080fd5b5061045d611ace565b60405161046a9190613bff565b60405180910390f35b34801561047f57600080fd5b5061049a60048036038101906104959190613526565b611ad4565b005b3480156104a857600080fd5b506104b1611d0c565b6040516104be9190613bff565b60405180910390f35b3480156104d357600080fd5b506104ee60048036038101906104e99190613410565b611d12565b005b3480156104fc57600080fd5b5061051760048036038101906105129190613526565b611f09565b005b34801561052557600080fd5b5061052e612141565b60405161053b9190613bff565b60405180910390f35b34801561055057600080fd5b5061056b60048036038101906105669190613526565b612147565b005b34801561057957600080fd5b50610594600480360381019061058f9190613526565b61237f565b6040516105ac9c9b9a99989796959493929190613c1a565b60405180910390f35b3480156105c157600080fd5b506105ca612584565b6040516105d791906139cb565b60405180910390f35b3480156105ec57600080fd5b5061060760048036038101906106029190613410565b6125a8565b005b34801561061557600080fd5b50610630600480360381019061062b9190613410565b61279f565b005b34801561063e57600080fd5b5061065960048036038101906106549190613526565b612996565b60405161066994939291906139e6565b60405180910390f35b34801561067e57600080fd5b5061069960048036038101906106949190613526565b612af6565b6040516106a69190613a7d565b60405180910390f35b806000811180156106c257506001548111155b610701576040517f08c379a00000000000000000000000000000000000000000000000000000000081526004016106f890613abf565b60405180910390fd5b600061070c33612ffb565b905060008111610751576040517f08c379a000000000000000000000000000000000000000000000000000000000815260040161074890613b3f565b60405180910390fd5b6003600581111561078b577f4e487b7100000000000000000000000000000000000000000000000000000000600052602160045260246000fd5b6007600085815260200190815260200160002060090160009054906101000a900460ff1660058111156107e7577f4e487b7100000000000000000000000000000000000000000000000000000000600052602160045260246000fd5b14610827576040517f08c379a000000000000000000000000000000000000000000000000000000000815260040161081e90613a9f565b60405180910390fd5b80600760008581526020019081526020016000206006018190555060046007600085815260200190815260200160002060090160006101000a81548160ff021916908360058111156108a2577f4e487b7100000000000000000000000000000000000000000000000000000000600052602160045260246000fd5b0217905550827f4c9a79960612522c0c85fb238ebc92b950a568f4d3cfec68a565583d29130e5c6004426040516108da929190613a54565b60405180910390a2505050565b60008054906101000a900473ffffffffffffffffffffffffffffffffffffffff1673ffffffffffffffffffffffffffffffffffffffff163373ffffffffffffffffffffffffffffffffffffffff1614610975576040517f08c379a000000000000000000000000000000000000000000000000000000000815260040161096c90613b9f565b60405180910390fd5b600073ffffffffffffffffffffffffffffffffffffffff168373ffffffffffffffffffffffffffffffffffffffff1614156109e5576040517f08c379a00000000000000000000000000000000000000000000000000000000081526004016109dc90613aff565b60405180910390fd5b600460008154809291906109f890613e5c565b919050555060405180608001604052808473ffffffffffffffffffffffffffffffffffffffff168152602001600454815260200183815260200182815250600a6000600454815260200190815260200160002060008201518160000160006101000a81548173ffffffffffffffffffffffffffffffffffffffff021916908373ffffffffffffffffffffffffffffffffffffffff160217905550602082015181600101556040820151816002019080519060200190610ab89291906132db565b506060820151816003019080519060200190610ad59291906132db565b50905050505050565b600a6020528060005260406000206000915090508060000160009054906101000a900473ffffffffffffffffffffffffffffffffffffffff1690806001015490806002018054610b2d90613e2a565b80601f0160208091040260200160405190810160405280929190818152602001828054610b5990613e2a565b8015610ba65780601f10610b7b57610100808354040283529160200191610ba6565b820191906000526020600020905b815481529060010190602001808311610b8957829003601f168201915b505050505090806003018054610bbb90613e2a565b80601f0160208091040260200160405190810160405280929190818152602001828054610be790613e2a565b8015610c345780601f10610c0957610100808354040283529160200191610c34565b820191906000526020600020905b815481529060010190602001808311610c1757829003601f168201915b5050505050905084565b60045481565b60008054906101000a900473ffffffffffffffffffffffffffffffffffffffff1673ffffffffffffffffffffffffffffffffffffffff163373ffffffffffffffffffffffffffffffffffffffff1614610cd2576040517f08c379a0000000000000000000000000000000000000000000000000000000008152600401610cc990613b9f565b60405180910390fd5b6000600254118015610ce657506000600354115b8015610cf457506000600454115b8015610d0257506000600554115b610d41576040517f08c379a0000000000000000000000000000000000000000000000000000000008152600401610d3890613bdf565b60405180910390fd5b60016000815480929190610d5490613e5c565b919050555060006001548484604051602001610d7293929190613996565b6040516020818303038152906040528051906020012090506040518061018001604052806001548152602001858152602001848152602001838152602001600081526020016000815260200160008152602001600081526020016000815260200160006005811115610e0d577f4e487b7100000000000000000000000000000000000000000000000000000000600052602160045260246000fd5b815260200142815260200182815250600760006001548152602001908152602001600020600082015181600001556020820151816001019080519060200190610e579291906132db565b506040820151816002019080519060200190610e749291906132db565b506060820151816003019080519060200190610e919291906132db565b506080820151816004015560a0820151816005015560c0820151816006015560e0820151816007015561010082015181600801556101208201518160090160006101000a81548160ff02191690836005811115610f17577f4e487b7100000000000000000000000000000000000000000000000000000000600052602160045260246000fd5b021790555061014082015181600a015561016082015181600b01559050506001547f4c9a79960612522c0c85fb238ebc92b950a568f4d3cfec68a565583d29130e5c600042604051610f6a929190613a54565b60405180910390a250505050565b80600081118015610f8b57506001548111155b610fca576040517f08c379a0000000000000000000000000000000000000000000000000000000008152600401610fc190613abf565b60405180910390fd5b6000610fd5336130b3565b90506000811161101a576040517f08c379a000000000000000000000000000000000000000000000000000000000815260040161101190613b7f565b60405180910390fd5b60026005811115611054577f4e487b7100000000000000000000000000000000000000000000000000000000600052602160045260246000fd5b6007600085815260200190815260200160002060090160009054906101000a900460ff1660058111156110b0577f4e487b7100000000000000000000000000000000000000000000000000000000600052602160045260246000fd5b146110f0576040517f08c379a00000000000000000000000000000000000000000000000000000000081526004016110e790613a9f565b60405180910390fd5b60036007600085815260200190815260200160002060090160006101000a81548160ff02191690836005811115611150577f4e487b7100000000000000000000000000000000000000000000000000000000600052602160045260246000fd5b0217905550827f4c9a79960612522c0c85fb238ebc92b950a568f4d3cfec68a565583d29130e5c600342604051611188929190613a54565b60405180910390a2505050565b60035481565b600b6020528060005260406000206000915090508060000160009054906101000a900473ffffffffffffffffffffffffffffffffffffffff16908060010154908060020180546111ea90613e2a565b80601f016020809104026020016040519081016040528092919081815260200182805461121690613e2a565b80156112635780601f1061123857610100808354040283529160200191611263565b820191906000526020600020905b81548152906001019060200180831161124657829003601f168201915b50505050509080600301805461127890613e2a565b80601f01602080910402602001604051908101604052809291908181526020018280546112a490613e2a565b80156112f15780601f106112c6576101008083540402835291602001916112f1565b820191906000526020600020905b8154815290600101906020018083116112d457829003601f168201915b5050505050905084565b600c6020528060005260406000206000915090508060000160009054906101000a900473ffffffffffffffffffffffffffffffffffffffff169080600101549080600201805461134a90613e2a565b80601f016020809104026020016040519081016040528092919081815260200182805461137690613e2a565b80156113c35780601f10611398576101008083540402835291602001916113c3565b820191906000526020600020905b8154815290600101906020018083116113a657829003601f168201915b5050505050908060030180546113d890613e2a565b80601f016020809104026020016040519081016040528092919081815260200182805461140490613e2a565b80156114515780601f1061142657610100808354040283529160200191611451565b820191906000526020600020905b81548152906001019060200180831161143457829003601f168201915b5050505050905084565b60008054906101000a900473ffffffffffffffffffffffffffffffffffffffff1673ffffffffffffffffffffffffffffffffffffffff163373ffffffffffffffffffffffffffffffffffffffff16146114e9576040517f08c379a00000000000000000000000000000000000000000000000000000000081526004016114e090613b9f565b60405180910390fd5b816000811180156114fc57506001548111155b61153b576040517f08c379a000000000000000000000000000000000000000000000000000000000815260040161153290613abf565b60405180910390fd5b81341461157d576040517f08c379a000000000000000000000000000000000000000000000000000000000815260040161157490613b5f565b60405180910390fd5b6000600760008581526020019081526020016000206004015414156115d7576040517f08c379a00000000000000000000000000000000000000000000000000000000081526004016115ce90613bbf565b60405180910390fd5b6000600860006007600087815260200190815260200160002060040154815260200190815260200160002060000160009054906101000a900473ffffffffffffffffffffffffffffffffffffffff1690508073ffffffffffffffffffffffffffffffffffffffff166108fc849081150290604051600060405180830381858888f1935050505015801561166e573d6000803e3d6000fd5b508073ffffffffffffffffffffffffffffffffffffffff16847f952e5301753c5bc62cbfbdbe1b6553cd54796e01da9cfeaaf29921d6ede1a726856040516116b69190613bff565b60405180910390a350505050565b60015481565b6000836000811180156116df57506001548111155b61171e576040517f08c379a000000000000000000000000000000000000000000000000000000000815260040161171590613abf565b60405180910390fd5b600085858560405160200161173593929190613996565b604051602081830303815290604052805190602001209050600060076000888152602001908152602001600020600b0154821490508093505050509392505050565b60008054906101000a900473ffffffffffffffffffffffffffffffffffffffff1673ffffffffffffffffffffffffffffffffffffffff163373ffffffffffffffffffffffffffffffffffffffff1614611805576040517f08c379a00000000000000000000000000000000000000000000000000000000081526004016117fc90613b9f565b60405180910390fd5b600073ffffffffffffffffffffffffffffffffffffffff168373ffffffffffffffffffffffffffffffffffffffff161415611875576040517f08c379a000000000000000000000000000000000000000000000000000000000815260040161186c90613aff565b60405180910390fd5b6003600081548092919061188890613e5c565b919050555060405180608001604052808473ffffffffffffffffffffffffffffffffffffffff16815260200160035481526020018381526020018281525060096000600354815260200190815260200160002060008201518160000160006101000a81548173ffffffffffffffffffffffffffffffffffffffff021916908373ffffffffffffffffffffffffffffffffffffffff1602179055506020820151816001015560408201518160020190805190602001906119489291906132db565b5060608201518160030190805190602001906119659291906132db565b50905050505050565b60086020528060005260406000206000915090508060000160009054906101000a900473ffffffffffffffffffffffffffffffffffffffff16908060010154908060020180546119bd90613e2a565b80601f01602080910402602001604051908101604052809291908181526020018280546119e990613e2a565b8015611a365780601f10611a0b57610100808354040283529160200191611a36565b820191906000526020600020905b815481529060010190602001808311611a1957829003601f168201915b505050505090806003018054611a4b90613e2a565b80601f0160208091040260200160405190810160405280929190818152602001828054611a7790613e2a565b8015611ac45780601f10611a9957610100808354040283529160200191611ac4565b820191906000526020600020905b815481529060010190602001808311611aa757829003601f168201915b5050505050905084565b60055481565b80600081118015611ae757506001548111155b611b26576040517f08c379a0000000000000000000000000000000000000000000000000000000008152600401611b1d90613abf565b60405180910390fd5b6000611b313361316b565b905060008111611b76576040517f08c379a0000000000000000000000000000000000000000000000000000000008152600401611b6d90613adf565b60405180910390fd5b60006005811115611bb0577f4e487b7100000000000000000000000000000000000000000000000000000000600052602160045260246000fd5b6007600085815260200190815260200160002060090160009054906101000a900460ff166005811115611c0c577f4e487b7100000000000000000000000000000000000000000000000000000000600052602160045260246000fd5b14611c4c576040517f08c379a0000000000000000000000000000000000000000000000000000000008152600401611c4390613a9f565b60405180910390fd5b80600760008581526020019081526020016000206004018190555060016007600085815260200190815260200160002060090160006101000a81548160ff02191690836005811115611cc7577f4e487b7100000000000000000000000000000000000000000000000000000000600052602160045260246000fd5b0217905550827f4c9a79960612522c0c85fb238ebc92b950a568f4d3cfec68a565583d29130e5c600142604051611cff929190613a54565b60405180910390a2505050565b60025481565b60008054906101000a900473ffffffffffffffffffffffffffffffffffffffff1673ffffffffffffffffffffffffffffffffffffffff163373ffffffffffffffffffffffffffffffffffffffff1614611da0576040517f08c379a0000000000000000000000000000000000000000000000000000000008152600401611d9790613b9f565b60405180910390fd5b600073ffffffffffffffffffffffffffffffffffffffff168373ffffffffffffffffffffffffffffffffffffffff161415611e10576040517f08c379a0000000000000000000000000000000000000000000000000000000008152600401611e0790613aff565b60405180910390fd5b60056000815480929190611e2390613e5c565b919050555060405180608001604052808473ffffffffffffffffffffffffffffffffffffffff168152602001600554815260200183815260200182815250600b6000600554815260200190815260200160002060008201518160000160006101000a81548173ffffffffffffffffffffffffffffffffffffffff021916908373ffffffffffffffffffffffffffffffffffffffff160217905550602082015181600101556040820151816002019080519060200190611ee39291906132db565b506060820151816003019080519060200190611f009291906132db565b50905050505050565b80600081118015611f1c57506001548111155b611f5b576040517f08c379a0000000000000000000000000000000000000000000000000000000008152600401611f5290613abf565b60405180910390fd5b6000611f66336130b3565b905060008111611fab576040517f08c379a0000000000000000000000000000000000000000000000000000000008152600401611fa290613b7f565b60405180910390fd5b60016005811115611fe5577f4e487b7100000000000000000000000000000000000000000000000000000000600052602160045260246000fd5b6007600085815260200190815260200160002060090160009054906101000a900460ff166005811115612041577f4e487b7100000000000000000000000000000000000000000000000000000000600052602160045260246000fd5b14612081576040517f08c379a000000000000000000000000000000000000000000000000000000000815260040161207890613a9f565b60405180910390fd5b80600760008581526020019081526020016000206005018190555060026007600085815260200190815260200160002060090160006101000a81548160ff021916908360058111156120fc577f4e487b7100000000000000000000000000000000000000000000000000000000600052602160045260246000fd5b0217905550827f4c9a79960612522c0c85fb238ebc92b950a568f4d3cfec68a565583d29130e5c600242604051612134929190613a54565b60405180910390a2505050565b60065481565b8060008111801561215a57506001548111155b612199576040517f08c379a000000000000000000000000000000000000000000000000000000000815260040161219090613abf565b60405180910390fd5b60006121a433613223565b9050600081116121e9576040517f08c379a00000000000000000000000000000000000000000000000000000000081526004016121e090613b1f565b60405180910390fd5b60046005811115612223577f4e487b7100000000000000000000000000000000000000000000000000000000600052602160045260246000fd5b6007600085815260200190815260200160002060090160009054906101000a900460ff16600581111561227f577f4e487b7100000000000000000000000000000000000000000000000000000000600052602160045260246000fd5b146122bf576040517f08c379a00000000000000000000000000000000000000000000000000000000081526004016122b690613a9f565b60405180910390fd5b80600760008581526020019081526020016000206007018190555060056007600085815260200190815260200160002060090160006101000a81548160ff0219169083600581111561233a577f4e487b7100000000000000000000000000000000000000000000000000000000600052602160045260246000fd5b0217905550827f4c9a79960612522c0c85fb238ebc92b950a568f4d3cfec68a565583d29130e5c600542604051612372929190613a54565b60405180910390a2505050565b60076020528060005260406000206000915090508060000154908060010180546123a890613e2a565b80601f01602080910402602001604051908101604052809291908181526020018280546123d490613e2a565b80156124215780601f106123f657610100808354040283529160200191612421565b820191906000526020600020905b81548152906001019060200180831161240457829003601f168201915b50505050509080600201805461243690613e2a565b80601f016020809104026020016040519081016040528092919081815260200182805461246290613e2a565b80156124af5780601f10612484576101008083540402835291602001916124af565b820191906000526020600020905b81548152906001019060200180831161249257829003601f168201915b5050505050908060030180546124c490613e2a565b80601f01602080910402602001604051908101604052809291908181526020018280546124f090613e2a565b801561253d5780601f106125125761010080835404028352916020019161253d565b820191906000526020600020905b81548152906001019060200180831161252057829003601f168201915b5050505050908060040154908060050154908060060154908060070154908060080154908060090160009054906101000a900460ff169080600a01549080600b015490508c565b60008054906101000a900473ffffffffffffffffffffffffffffffffffffffff1681565b60008054906101000a900473ffffffffffffffffffffffffffffffffffffffff1673ffffffffffffffffffffffffffffffffffffffff163373ffffffffffffffffffffffffffffffffffffffff1614612636576040517f08c379a000000000000000000000000000000000000000000000000000000000815260040161262d90613b9f565b60405180910390fd5b600073ffffffffffffffffffffffffffffffffffffffff168373ffffffffffffffffffffffffffffffffffffffff1614156126a6576040517f08c379a000000000000000000000000000000000000000000000000000000000815260040161269d90613aff565b60405180910390fd5b600260008154809291906126b990613e5c565b919050555060405180608001604052808473ffffffffffffffffffffffffffffffffffffffff16815260200160025481526020018381526020018281525060086000600254815260200190815260200160002060008201518160000160006101000a81548173ffffffffffffffffffffffffffffffffffffffff021916908373ffffffffffffffffffffffffffffffffffffffff1602179055506020820151816001015560408201518160020190805190602001906127799291906132db565b5060608201518160030190805190602001906127969291906132db565b50905050505050565b60008054906101000a900473ffffffffffffffffffffffffffffffffffffffff1673ffffffffffffffffffffffffffffffffffffffff163373ffffffffffffffffffffffffffffffffffffffff161461282d576040517f08c379a000000000000000000000000000000000000000000000000000000000815260040161282490613b9f565b60405180910390fd5b600073ffffffffffffffffffffffffffffffffffffffff168373ffffffffffffffffffffffffffffffffffffffff16141561289d576040517f08c379a000000000000000000000000000000000000000000000000000000000815260040161289490613aff565b60405180910390fd5b600660008154809291906128b090613e5c565b919050555060405180608001604052808473ffffffffffffffffffffffffffffffffffffffff168152602001600654815260200183815260200182815250600c6000600654815260200190815260200160002060008201518160000160006101000a81548173ffffffffffffffffffffffffffffffffffffffff021916908373ffffffffffffffffffffffffffffffffffffffff1602179055506020820151816001015560408201518160020190805190602001906129709291906132db565b50606082015181600301908051906020019061298d9291906132db565b50905050505050565b60096020528060005260406000206000915090508060000160009054906101000a900473ffffffffffffffffffffffffffffffffffffffff16908060010154908060020180546129e590613e2a565b80601f0160208091040260200160405190810160405280929190818152602001828054612a1190613e2a565b8015612a5e5780601f10612a3357610100808354040283529160200191612a5e565b820191906000526020600020905b815481529060010190602001808311612a4157829003601f168201915b505050505090806003018054612a7390613e2a565b80601f0160208091040260200160405190810160405280929190818152602001828054612a9f90613e2a565b8015612aec5780601f10612ac157610100808354040283529160200191612aec565b820191906000526020600020905b815481529060010190602001808311612acf57829003601f168201915b5050505050905084565b606081600081118015612b0b57506001548111155b612b4a576040517f08c379a0000000000000000000000000000000000000000000000000000000008152600401612b4190613abf565b60405180910390fd5b60006007600085815260200190815260200160002060090160009054906101000a900460ff16905060006005811115612bac577f4e487b7100000000000000000000000000000000000000000000000000000000600052602160045260246000fd5b816005811115612be5577f4e487b7100000000000000000000000000000000000000000000000000000000600052602160045260246000fd5b1415612c29576040518060400160405280600c81526020017f50617274204f7264657265640000000000000000000000000000000000000000815250925050612ff5565b60016005811115612c63577f4e487b7100000000000000000000000000000000000000000000000000000000600052602160045260246000fd5b816005811115612c9c577f4e487b7100000000000000000000000000000000000000000000000000000000600052602160045260246000fd5b1415612ce0576040518060400160405280601881526020017f436f6d706f6e656e7420536f757263696e672053746167650000000000000000815250925050612ff5565b60026005811115612d1a577f4e487b7100000000000000000000000000000000000000000000000000000000600052602160045260246000fd5b816005811115612d53577f4e487b7100000000000000000000000000000000000000000000000000000000600052602160045260246000fd5b1415612d97576040518060400160405280600e81526020017f417373656d626c79205374616765000000000000000000000000000000000000815250925050612ff5565b60036005811115612dd1577f4e487b7100000000000000000000000000000000000000000000000000000000600052602160045260246000fd5b816005811115612e0a577f4e487b7100000000000000000000000000000000000000000000000000000000600052602160045260246000fd5b1415612e4e576040518060400160405280601381526020017f5175616c69747920436865636b20537461676500000000000000000000000000815250925050612ff5565b60046005811115612e88577f4e487b7100000000000000000000000000000000000000000000000000000000600052602160045260246000fd5b816005811115612ec1577f4e487b7100000000000000000000000000000000000000000000000000000000600052602160045260246000fd5b1415612f05576040518060400160405280600e81526020017f44656c6976657279205374616765000000000000000000000000000000000000815250925050612ff5565b600580811115612f3e577f4e487b7100000000000000000000000000000000000000000000000000000000600052602160045260246000fd5b816005811115612f77577f4e487b7100000000000000000000000000000000000000000000000000000000600052602160045260246000fd5b1415612fbb576040518060400160405280600981526020017f5061727420536f6c640000000000000000000000000000000000000000000000815250925050612ff5565b6040518060400160405280600d81526020017f556e6b6e6f776e205374616765000000000000000000000000000000000000008152509250505b50919050565b600080600190505b60045481116130a8578273ffffffffffffffffffffffffffffffffffffffff16600a600083815260200190815260200160002060000160009054906101000a900473ffffffffffffffffffffffffffffffffffffffff1673ffffffffffffffffffffffffffffffffffffffff16141561309557600a6000828152602001908152602001600020600101549150506130ae565b80806130a090613e5c565b915050613003565b50600090505b919050565b600080600190505b6003548111613160578273ffffffffffffffffffffffffffffffffffffffff166009600083815260200190815260200160002060000160009054906101000a900473ffffffffffffffffffffffffffffffffffffffff1673ffffffffffffffffffffffffffffffffffffffff16141561314d576009600082815260200190815260200160002060010154915050613166565b808061315890613e5c565b9150506130bb565b50600090505b919050565b600080600190505b6002548111613218578273ffffffffffffffffffffffffffffffffffffffff166008600083815260200190815260200160002060000160009054906101000a900473ffffffffffffffffffffffffffffffffffffffff1673ffffffffffffffffffffffffffffffffffffffff16141561320557600860008281526020019081526020016000206001015491505061321e565b808061321090613e5c565b915050613173565b50600090505b919050565b600080600190505b60055481116132d0578273ffffffffffffffffffffffffffffffffffffffff16600b600083815260200190815260200160002060000160009054906101000a900473ffffffffffffffffffffffffffffffffffffffff1673ffffffffffffffffffffffffffffffffffffffff1614156132bd57600b6000828152602001908152602001600020600101549150506132d6565b80806132c890613e5c565b91505061322b565b50600090505b919050565b8280546132e790613e2a565b90600052602060002090601f0160209004810192826133095760008555613350565b82601f1061332257805160ff1916838001178555613350565b82800160010185558215613350579182015b8281111561334f578251825591602001919060010190613334565b5b50905061335d9190613361565b5090565b5b8082111561337a576000816000905550600101613362565b5090565b600061339161338c84613d1a565b613ce9565b9050828152602081018484840111156133a957600080fd5b6133b4848285613de8565b509392505050565b6000813590506133cb81613f90565b92915050565b600082601f8301126133e257600080fd5b81356133f284826020860161337e565b91505092915050565b60008135905061340a81613fa7565b92915050565b60008060006060848603121561342557600080fd5b6000613433868287016133bc565b935050602084013567ffffffffffffffff81111561345057600080fd5b61345c868287016133d1565b925050604084013567ffffffffffffffff81111561347957600080fd5b613485868287016133d1565b9150509250925092565b6000806000606084860312156134a457600080fd5b600084013567ffffffffffffffff8111156134be57600080fd5b6134ca868287016133d1565b935050602084013567ffffffffffffffff8111156134e757600080fd5b6134f3868287016133d1565b925050604084013567ffffffffffffffff81111561351057600080fd5b61351c868287016133d1565b9150509250925092565b60006020828403121561353857600080fd5b6000613546848285016133fb565b91505092915050565b60008060006060848603121561356457600080fd5b6000613572868287016133fb565b935050602084013567ffffffffffffffff81111561358f57600080fd5b61359b868287016133d1565b925050604084013567ffffffffffffffff8111156135b857600080fd5b6135c4868287016133d1565b9150509250925092565b600080604083850312156135e157600080fd5b60006135ef858286016133fb565b9250506020613600858286016133fb565b9150509250929050565b61361381613d71565b82525050565b61362281613d83565b82525050565b61363181613d8f565b82525050565b61364081613dd6565b82525050565b600061365182613d4a565b61365b8185613d55565b935061366b818560208601613df7565b61367481613f6b565b840191505092915050565b600061368a82613d4a565b6136948185613d66565b93506136a4818560208601613df7565b80840191505092915050565b60006136bd600d83613d55565b91507f496e76616c6964207374616765000000000000000000000000000000000000006000830152602082019050919050565b60006136fd600f83613d55565b91507f496e76616c6964207061727420494400000000000000000000000000000000006000830152602082019050919050565b600061373d601483613d55565b91507f4e6f7420612076616c696420737570706c6965720000000000000000000000006000830152602082019050919050565b600061377d600f83613d55565b91507f496e76616c6964206164647265737300000000000000000000000000000000006000830152602082019050919050565b60006137bd601483613d55565b91507f4e6f7420612076616c69642072657461696c65720000000000000000000000006000830152602082019050919050565b60006137fd601783613d55565b91507f4e6f7420612076616c6964206469737472696275746f720000000000000000006000830152602082019050919050565b600061383d601883613d55565b91507f496e636f7272656374207061796d656e7420616d6f756e7400000000000000006000830152602082019050919050565b600061387d601883613d55565b91507f4e6f7420612076616c6964206d616e75666163747572657200000000000000006000830152602082019050919050565b60006138bd601283613d55565b91507f4f6e6c79206f776e657220616c6c6f77656400000000000000000000000000006000830152602082019050919050565b60006138fd601583613d55565b91507f537570706c696572206e6f742061737369676e656400000000000000000000006000830152602082019050919050565b600061393d600d83613d55565b91507f526f6c6573206d697373696e67000000000000000000000000000000000000006000830152602082019050919050565b61397981613dcc565b82525050565b61399061398b82613dcc565b613ea5565b82525050565b60006139a2828661397f565b6020820191506139b2828561367f565b91506139be828461367f565b9150819050949350505050565b60006020820190506139e0600083018461360a565b92915050565b60006080820190506139fb600083018761360a565b613a086020830186613970565b8181036040830152613a1a8185613646565b90508181036060830152613a2e8184613646565b905095945050505050565b6000602082019050613a4e6000830184613619565b92915050565b6000604082019050613a696000830185613637565b613a766020830184613970565b9392505050565b60006020820190508181036000830152613a978184613646565b905092915050565b60006020820190508181036000830152613ab8816136b0565b9050919050565b60006020820190508181036000830152613ad8816136f0565b9050919050565b60006020820190508181036000830152613af881613730565b9050919050565b60006020820190508181036000830152613b1881613770565b9050919050565b60006020820190508181036000830152613b38816137b0565b9050919050565b60006020820190508181036000830152613b58816137f0565b9050919050565b60006020820190508181036000830152613b7881613830565b9050919050565b60006020820190508181036000830152613b9881613870565b9050919050565b60006020820190508181036000830152613bb8816138b0565b9050919050565b60006020820190508181036000830152613bd8816138f0565b9050919050565b60006020820190508181036000830152613bf881613930565b9050919050565b6000602082019050613c146000830184613970565b92915050565b600061018082019050613c30600083018f613970565b8181036020830152613c42818e613646565b90508181036040830152613c56818d613646565b90508181036060830152613c6a818c613646565b9050613c79608083018b613970565b613c8660a083018a613970565b613c9360c0830189613970565b613ca060e0830188613970565b613cae610100830187613970565b613cbc610120830186613637565b613cca610140830185613970565b613cd8610160830184613628565b9d9c50505050505050505050505050565b6000604051905081810181811067ffffffffffffffff82111715613d1057613d0f613f3c565b5b8060405250919050565b600067ffffffffffffffff821115613d3557613d34613f3c565b5b601f19601f8301169050602081019050919050565b600081519050919050565b600082825260208201905092915050565b600081905092915050565b6000613d7c82613dac565b9050919050565b60008115159050919050565b6000819050919050565b6000819050613da782613f7c565b919050565b600073ffffffffffffffffffffffffffffffffffffffff82169050919050565b6000819050919050565b6000613de182613d99565b9050919050565b82818337600083830152505050565b60005b83811015613e15578082015181840152602081019050613dfa565b83811115613e24576000848401525b50505050565b60006002820490506001821680613e4257607f821691505b60208210811415613e5657613e55613f0d565b5b50919050565b6000613e6782613dcc565b91507fffffffffffffffffffffffffffffffffffffffffffffffffffffffffffffffff821415613e9a57613e99613eaf565b5b600182019050919050565b6000819050919050565b7f4e487b7100000000000000000000000000000000000000000000000000000000600052601160045260246000fd5b7f4e487b7100000000000000000000000000000000000000000000000000000000600052602160045260246000fd5b7f4e487b7100000000000000000000000000000000000000000000000000000000600052602260045260246000fd5b7f4e487b7100000000000000000000000000000000000000000000000000000000600052604160045260246000fd5b6000601f19601f8301169050919050565b60068110613f8d57613f8c613ede565b5b50565b613f9981613d71565b8114613fa457600080fd5b50565b613fb081613dcc565b8114613fbb57600080fd5b5056fea26469706673582212203a14880bfdc43cc0e3dd1a9d06e30a02b90a70031a63c3552daac0e47a2b386164736f6c63430008000033",
  "immutableReferences": {},
  "source": "// SPDX-License-Identifier: MIT\npragma solidity ^0.8.0;\n\ncontract SupplyChain {\n    // Contract owner (deployer) who authorizes roles\n    address public Owner;\n\n    constructor() {\n        Owner = msg.sender;\n    }\n\n    // Modifier to restrict functions to owner\n    modifier onlyByOwner() {\n        require(msg.sender == Owner, \"Only owner allowed\");\n        _;\n    }\n\n    // Modifier to check valid part ID\n    modifier validPartID(uint256 _partID) {\n        require(_partID > 0 && _partID <= partCtr, \"Invalid part ID\");\n        _;\n    }\n\n    // Stages of an automotive part in the supply chain\n    enum STAGE {\n        Init,\n        ComponentSourcing,\n        Assembly,\n        QualityCheck,\n        Delivery,\n        Sold\n    }\n\n    // Part counters\n    uint256 public partCtr = 0; // Automotive parts\n    uint256 public supCtr = 0; // Suppliers\n    uint256 public manCtr = 0; // Manufacturers\n    uint256 public disCtr = 0; // Distributors\n    uint256 public retCtr = 0; // Retailers\n    uint256 public cusCtr = 0; // Customers\n\n    // Struct to store part information\n    struct Part {\n        uint256 id; // Unique part ID\n        string serialNumber; // Serial number for traceability\n        string name; // Name of the part\n        string description; // Description of the part\n        uint256 SUPid; // Supplier ID\n        uint256 MANid; // Manufacturer ID\n        uint256 DISid; // Distributor ID\n        uint256 RETid; // Retailer ID\n        uint256 CUSid; // Customer ID\n        STAGE stage; // Current stage\n        uint256 productionDate; // Production timestamp\n        bytes32 partHash; // Hash for anti-counterfeit\n    }\n\n    // Structs for roles\n    struct Supplier {\n        address addr; // Ethereum address\n        uint256 id; // Supplier ID\n        string name; // Supplier name\n        string location; // Supplier location\n    }\n\n    struct Manufacturer {\n        address addr;\n        uint256 id;\n        string name;\n        string location;\n    }\n\n    struct Distributor {\n        address addr;\n        uint256 id;\n        string name;\n        string location;\n    }\n\n    struct Retailer {\n        address addr;\n        uint256 id;\n        string name;\n        string location;\n    }\n\n    struct Customer {\n        address addr;\n        uint256 id;\n        string name;\n        string location;\n    }\n\n    // Mappings to store data\n    mapping(uint256 => Part) public Parts;\n    mapping(uint256 => Supplier) public SUP;\n    mapping(uint256 => Manufacturer) public MAN;\n    mapping(uint256 => Distributor) public DIS;\n    mapping(uint256 => Retailer) public RET;\n    mapping(uint256 => Customer) public CUS;\n\n    // Events for tracking\n    event StageUpdate(uint256 indexed partID, STAGE stage, uint256 timestamp);\n    event PaymentSent(uint256 indexed partID, address indexed recipient, uint256 amount);\n    event PartVerified(uint256 indexed partID, bool isValid);\n\n    // Add supplier\n    function addSupplier(\n        address _address,\n        string memory _name,\n        string memory _location\n    ) public onlyByOwner {\n        require(_address != address(0), \"Invalid address\");\n        supCtr++;\n        SUP[supCtr] = Supplier(_address, supCtr, _name, _location);\n    }\n\n    // Add manufacturer\n    function addManufacturer(\n        address _address,\n        string memory _name,\n        string memory _location\n    ) public onlyByOwner {\n        require(_address != address(0), \"Invalid address\");\n        manCtr++;\n        MAN[manCtr] = Manufacturer(_address, manCtr, _name, _location);\n    }\n\n    // Add distributor\n    function addDistributor(\n        address _address,\n        string memory _name,\n        string memory _location\n    ) public onlyByOwner {\n        require(_address != address(0), \"Invalid address\");\n        disCtr++;\n        DIS[disCtr] = Distributor(_address, disCtr, _name, _location);\n    }\n\n    // Add retailer\n    function addRetailer(\n        address _address,\n        string memory _name,\n        string memory _location\n    ) public onlyByOwner {\n        require(_address != address(0), \"Invalid address\");\n        retCtr++;\n        RET[retCtr] = Retailer(_address, retCtr, _name, _location);\n    }\n\n    // Add customer\n    function addCustomer(\n        address _address,\n        string memory _name,\n        string memory _location\n    ) public onlyByOwner {\n        require(_address != address(0), \"Invalid address\");\n        cusCtr++;\n        CUS[cusCtr] = Customer(_address, cusCtr, _name, _location);\n    }\n\n    // Add new part\n    function addPart(\n        string memory _serialNumber,\n        string memory _name,\n        string memory _description\n    ) public onlyByOwner {\n        require(supCtr > 0 && manCtr > 0 && disCtr > 0 && retCtr > 0, \"Roles missing\");\n        partCtr++;\n        bytes32 _partHash = keccak256(abi.encodePacked(partCtr, _serialNumber, _name));\n        Parts[partCtr] = Part(\n            partCtr,\n            _serialNumber,\n            _name,\n            _description,\n            0,\n            0,\n            0,\n            0,\n            0,\n            STAGE.Init,\n            block.timestamp,\n            _partHash\n        );\n        emit StageUpdate(partCtr, STAGE.Init, block.timestamp);\n    }\n\n    // Show current stage\n    function showStage(uint256 _partID)\n        public\n        view\n        validPartID(_partID)\n        returns (string memory)\n    {\n        STAGE stage = Parts[_partID].stage;\n        if (stage == STAGE.Init) return \"Part Ordered\";\n        else if (stage == STAGE.ComponentSourcing) return \"Component Sourcing Stage\";\n        else if (stage == STAGE.Assembly) return \"Assembly Stage\";\n        else if (stage == STAGE.QualityCheck) return \"Quality Check Stage\";\n        else if (stage == STAGE.Delivery) return \"Delivery Stage\";\n        else if (stage == STAGE.Sold) return \"Part Sold\";\n        else return \"Unknown Stage\";\n    }\n\n    // Verify part authenticity\n    function verifyPart(uint256 _partID, string memory _serialNumber, string memory _name)\n        public\n        view\n        validPartID(_partID)\n        returns (bool)\n    {\n        bytes32 computedHash = keccak256(abi.encodePacked(_partID, _serialNumber, _name));\n        bool isValid = computedHash == Parts[_partID].partHash;\n        return isValid;\n    }\n\n    // Pay supplier (escrow-like)\n    function paySupplier(uint256 _partID, uint256 _amount)\n        public\n        payable\n        onlyByOwner\n        validPartID(_partID)\n    {\n        require(msg.value == _amount, \"Incorrect payment amount\");\n        require(Parts[_partID].SUPid != 0, \"Supplier not assigned\");\n        address payable supplier = payable(SUP[Parts[_partID].SUPid].addr);\n        supplier.transfer(_amount);\n        emit PaymentSent(_partID, supplier, _amount);\n    }\n\n    // Supply components\n    function componentSourcing(uint256 _partID) public validPartID(_partID) {\n        uint256 _id = findSUP(msg.sender);\n        require(_id > 0, \"Not a valid supplier\");\n        require(Parts[_partID].stage == STAGE.Init, \"Invalid stage\");\n        Parts[_partID].SUPid = _id;\n        Parts[_partID].stage = STAGE.ComponentSourcing;\n        emit StageUpdate(_partID, STAGE.ComponentSourcing, block.timestamp);\n    }\n\n    // Assemble part\n    function Assembly(uint256 _partID) public validPartID(_partID) {\n        uint256 _id = findMAN(msg.sender);\n        require(_id > 0, \"Not a valid manufacturer\");\n        require(Parts[_partID].stage == STAGE.ComponentSourcing, \"Invalid stage\");\n        Parts[_partID].MANid = _id;\n        Parts[_partID].stage = STAGE.Assembly;\n        emit StageUpdate(_partID, STAGE.Assembly, block.timestamp);\n    }\n\n    // Quality check\n    function qualityCheck(uint256 _partID) public validPartID(_partID) {\n        uint256 _id = findMAN(msg.sender);\n        require(_id > 0, \"Not a valid manufacturer\");\n        require(Parts[_partID].stage == STAGE.Assembly, \"Invalid stage\");\n        Parts[_partID].stage = STAGE.QualityCheck;\n        emit StageUpdate(_partID, STAGE.QualityCheck, block.timestamp);\n    }\n\n    // Distribute part\n    function delivery(uint256 _partID) public validPartID(_partID) {\n        uint256 _id = findDIS(msg.sender);\n        require(_id > 0, \"Not a valid distributor\");\n        require(Parts[_partID].stage == STAGE.QualityCheck, \"Invalid stage\");\n        Parts[_partID].DISid = _id;\n        Parts[_partID].stage = STAGE.Delivery;\n        emit StageUpdate(_partID, STAGE.Delivery, block.timestamp);\n    }\n\n    // Retail part\n    function retail(uint256 _partID) public validPartID(_partID) {\n        uint256 _id = findRET(msg.sender);\n        require(_id > 0, \"Not a valid retailer\");\n        require(Parts[_partID].stage == STAGE.Delivery, \"Invalid stage\");\n        Parts[_partID].RETid = _id;\n        Parts[_partID].stage = STAGE.Sold;\n        emit StageUpdate(_partID, STAGE.Sold, block.timestamp);\n    }\n\n    \n\n    // Find supplier\n    function findSUP(address _address) private view returns (uint256) {\n        for (uint256 i = 1; i <= supCtr; i++) {\n            if (SUP[i].addr == _address) return SUP[i].id;\n        }\n        return 0;\n    }\n\n    // Find manufacturer\n    function findMAN(address _address) private view returns (uint256) {\n        for (uint256 i = 1; i <= manCtr; i++) {\n            if (MAN[i].addr == _address) return MAN[i].id;\n        }\n        return 0;\n    }\n\n    // Find distributor\n    function findDIS(address _address) private view returns (uint256) {\n        for (uint256 i = 1; i <= disCtr; i++) {\n            if (DIS[i].addr == _address) return DIS[i].id;\n        }\n        return 0;\n    }\n\n    // Find retailer\n    function findRET(address _address) private view returns (uint256) {\n        for (uint256 i = 1; i <= retCtr; i++) {\n            if (RET[i].addr == _address) return RET[i].id;\n        }\n        return 0;\n    }\n}",
  "sourcePath": "/Users/sona/Desktop/Code/supplychain/contracts/SupplyChain.sol",
  "compiler": {
    "name": "solc",
    "version": "0.8.0+commit.c7dfd78e.Emscripten.clang"
  },
  "schemaVersion": "3.4.16",
  "updatedAt": "2025-04-17T04:31:53.178Z",
  "networkType": "ethereum",
  "devdoc": {
    "kind": "dev",
    "methods": {},
    "version": 1
  },
  "userdoc": {
    "kind": "user",
    "methods": {},
    "version": 1
  }
}